{
  "contractName": "TokenFarm",
  "abi": [
    {
      "inputs": [
        {
          "internalType": "contract XToken",
          "name": "_xToken",
          "type": "address"
        },
        {
          "internalType": "contract DaiToken",
          "name": "_daiToken",
          "type": "address"
        },
        {
          "internalType": "uint256",
          "name": "_blockReward",
          "type": "uint256"
        }
      ],
      "payable": false,
      "stateMutability": "nonpayable",
      "type": "constructor"
    },
    {
      "constant": true,
      "inputs": [],
      "name": "daiToken",
      "outputs": [
        {
          "internalType": "contract DaiToken",
          "name": "",
          "type": "address"
        }
      ],
      "payable": false,
      "stateMutability": "view",
      "type": "function"
    },
    {
      "constant": true,
      "inputs": [],
      "name": "duration",
      "outputs": [
        {
          "internalType": "uint256",
          "name": "",
          "type": "uint256"
        }
      ],
      "payable": false,
      "stateMutability": "view",
      "type": "function"
    },
    {
      "constant": true,
      "inputs": [],
      "name": "farmInfo",
      "outputs": [
        {
          "internalType": "uint256",
          "name": "blockReward",
          "type": "uint256"
        },
        {
          "internalType": "uint256",
          "name": "lastRewardBlock",
          "type": "uint256"
        },
        {
          "internalType": "uint256",
          "name": "farmableSupply",
          "type": "uint256"
        }
      ],
      "payable": false,
      "stateMutability": "view",
      "type": "function"
    },
    {
      "constant": true,
      "inputs": [
        {
          "internalType": "address",
          "name": "",
          "type": "address"
        }
      ],
      "name": "hasStaked",
      "outputs": [
        {
          "internalType": "bool",
          "name": "",
          "type": "bool"
        }
      ],
      "payable": false,
      "stateMutability": "view",
      "type": "function"
    },
    {
      "constant": true,
      "inputs": [
        {
          "internalType": "address",
          "name": "",
          "type": "address"
        }
      ],
      "name": "isStaking",
      "outputs": [
        {
          "internalType": "bool",
          "name": "",
          "type": "bool"
        }
      ],
      "payable": false,
      "stateMutability": "view",
      "type": "function"
    },
    {
      "constant": true,
      "inputs": [],
      "name": "name",
      "outputs": [
        {
          "internalType": "string",
          "name": "",
          "type": "string"
        }
      ],
      "payable": false,
      "stateMutability": "view",
      "type": "function"
    },
    {
      "constant": true,
      "inputs": [],
      "name": "owner",
      "outputs": [
        {
          "internalType": "address",
          "name": "",
          "type": "address"
        }
      ],
      "payable": false,
      "stateMutability": "view",
      "type": "function"
    },
    {
      "constant": true,
      "inputs": [],
      "name": "penaltyRate",
      "outputs": [
        {
          "internalType": "uint256",
          "name": "",
          "type": "uint256"
        }
      ],
      "payable": false,
      "stateMutability": "view",
      "type": "function"
    },
    {
      "constant": true,
      "inputs": [
        {
          "internalType": "address",
          "name": "",
          "type": "address"
        }
      ],
      "name": "poolShareRatio",
      "outputs": [
        {
          "internalType": "uint256",
          "name": "",
          "type": "uint256"
        }
      ],
      "payable": false,
      "stateMutability": "view",
      "type": "function"
    },
    {
      "constant": true,
      "inputs": [
        {
          "internalType": "uint256",
          "name": "",
          "type": "uint256"
        }
      ],
      "name": "stakers",
      "outputs": [
        {
          "internalType": "address",
          "name": "",
          "type": "address"
        }
      ],
      "payable": false,
      "stateMutability": "view",
      "type": "function"
    },
    {
      "constant": true,
      "inputs": [
        {
          "internalType": "address",
          "name": "",
          "type": "address"
        }
      ],
      "name": "stakingBalance",
      "outputs": [
        {
          "internalType": "uint256",
          "name": "",
          "type": "uint256"
        }
      ],
      "payable": false,
      "stateMutability": "view",
      "type": "function"
    },
    {
      "constant": true,
      "inputs": [],
      "name": "stakingIndex",
      "outputs": [
        {
          "internalType": "uint256",
          "name": "",
          "type": "uint256"
        }
      ],
      "payable": false,
      "stateMutability": "view",
      "type": "function"
    },
    {
      "constant": true,
      "inputs": [
        {
          "internalType": "address",
          "name": "",
          "type": "address"
        }
      ],
      "name": "stakingTimestamp",
      "outputs": [
        {
          "internalType": "uint256",
          "name": "",
          "type": "uint256"
        }
      ],
      "payable": false,
      "stateMutability": "view",
      "type": "function"
    },
    {
      "constant": true,
      "inputs": [],
      "name": "xToken",
      "outputs": [
        {
          "internalType": "contract XToken",
          "name": "",
          "type": "address"
        }
      ],
      "payable": false,
      "stateMutability": "view",
      "type": "function"
    },
    {
      "constant": false,
      "inputs": [
        {
          "internalType": "uint256",
          "name": "_amount",
          "type": "uint256"
        }
      ],
      "name": "stakeTokens",
      "outputs": [],
      "payable": false,
      "stateMutability": "nonpayable",
      "type": "function"
    },
    {
      "constant": false,
      "inputs": [],
      "name": "unstakeTokens",
      "outputs": [],
      "payable": false,
      "stateMutability": "nonpayable",
      "type": "function"
    },
    {
      "constant": false,
      "inputs": [
        {
          "internalType": "uint256",
          "name": "_amount",
          "type": "uint256"
        }
      ],
      "name": "issueTokens",
      "outputs": [],
      "payable": false,
      "stateMutability": "nonpayable",
      "type": "function"
    },
    {
      "constant": false,
      "inputs": [],
      "name": "emergencyUnstakeTokens",
      "outputs": [],
      "payable": false,
      "stateMutability": "nonpayable",
      "type": "function"
    },
    {
      "constant": false,
      "inputs": [],
      "name": "getTotalBalance",
      "outputs": [],
      "payable": false,
      "stateMutability": "nonpayable",
      "type": "function"
    },
    {
      "constant": false,
      "inputs": [],
      "name": "getPoolShareRatio",
      "outputs": [],
      "payable": false,
      "stateMutability": "nonpayable",
      "type": "function"
    }
  ],
  "bytecode": "0x60806040526040518060400160405280600c81526020017f5820546f6b656e204661726d000000000000000000000000000000000000000081525060009080519060200190620000519291906200018a565b50600060045560026006553480156200006957600080fd5b50604051620020d5380380620020d5833981810160405260608110156200008f57600080fd5b8101908080519060200190929190805190602001909291908051906020019092919050505082600160006101000a81548173ffffffffffffffffffffffffffffffffffffffff021916908373ffffffffffffffffffffffffffffffffffffffff16021790555081600260006101000a81548173ffffffffffffffffffffffffffffffffffffffff021916908373ffffffffffffffffffffffffffffffffffffffff1602179055508060076000018190555033600360006101000a81548173ffffffffffffffffffffffffffffffffffffffff021916908373ffffffffffffffffffffffffffffffffffffffff16021790555050505062000239565b828054600181600116156101000203166002900490600052602060002090601f016020900481019282601f10620001cd57805160ff1916838001178555620001fe565b82800160010185558215620001fe579182015b82811115620001fd578251825591602001919060010190620001e0565b5b5090506200020d919062000211565b5090565b6200023691905b808211156200023257600081600090555060010162000218565b5090565b90565b611e8c80620002496000396000f3fe608060405234801561001057600080fd5b506004361061012c5760003560e01c80637547c7a3116100ad578063a5ce413b11610071578063a5ce413b1461048e578063be22f54614610498578063c93c8f34146104e2578063d6b7494f1461053e578063fd5e6dd11461055c5761012c565b80637547c7a3146103865780638da5cb5b146103b45780638f0794fe146103fe578063a179b81214610456578063a5820daa146104605761012c565b80631d49d66c116100f45780631d49d66c1461023057806330f508591461025c57806345bc78ab1461027a5780635bb7f6f5146102d25780636f49712b1461032a5761012c565b806306fdde0314610131578063088b699e146101b45780630d7a70d4146101fe5780630fb5a6b41461020857806312b5834914610226575b600080fd5b6101396105ca565b6040518080602001828103825283818151815260200191508051906020019080838360005b8381101561017957808201518184015260208101905061015e565b50505050905090810190601f1680156101a65780820380516001836020036101000a031916815260200191505b509250505060405180910390f35b6101bc610668565b604051808273ffffffffffffffffffffffffffffffffffffffff1673ffffffffffffffffffffffffffffffffffffffff16815260200191505060405180910390f35b61020661068e565b005b610210610845565b6040518082815260200191505060405180910390f35b61022e61084c565b005b610238610903565b60405180848152602001838152602001828152602001935050505060405180910390f35b61026461091b565b6040518082815260200191505060405180910390f35b6102bc6004803603602081101561029057600080fd5b81019080803573ffffffffffffffffffffffffffffffffffffffff169060200190929190505050610921565b6040518082815260200191505060405180910390f35b610314600480360360208110156102e857600080fd5b81019080803573ffffffffffffffffffffffffffffffffffffffff169060200190929190505050610939565b6040518082815260200191505060405180910390f35b61036c6004803603602081101561034057600080fd5b81019080803573ffffffffffffffffffffffffffffffffffffffff169060200190929190505050610951565b604051808215151515815260200191505060405180910390f35b6103b26004803603602081101561039c57600080fd5b8101908080359060200190929190505050610971565b005b6103bc610e57565b604051808273ffffffffffffffffffffffffffffffffffffffff1673ffffffffffffffffffffffffffffffffffffffff16815260200191505060405180910390f35b6104406004803603602081101561041457600080fd5b81019080803573ffffffffffffffffffffffffffffffffffffffff169060200190929190505050610e7d565b6040518082815260200191505060405180910390f35b61045e610e95565b005b61048c6004803603602081101561047657600080fd5b81019080803590602001909291905050506112fd565b005b6104966116aa565b005b6104a0611ad2565b604051808273ffffffffffffffffffffffffffffffffffffffff1673ffffffffffffffffffffffffffffffffffffffff16815260200191505060405180910390f35b610524600480360360208110156104f857600080fd5b81019080803573ffffffffffffffffffffffffffffffffffffffff169060200190929190505050611af8565b604051808215151515815260200191505060405180910390f35b610546611b18565b6040518082815260200191505060405180910390f35b6105886004803603602081101561057257600080fd5b8101908080359060200190929190505050611b1d565b604051808273ffffffffffffffffffffffffffffffffffffffff1673ffffffffffffffffffffffffffffffffffffffff16815260200191505060405180910390f35b60008054600181600116156101000203166002900480601f0160208091040260200160405190810160405280929190818152602001828054600181600116156101000203166002900480156106605780601f1061063557610100808354040283529160200191610660565b820191906000526020600020905b81548152906001019060200180831161064357829003601f168201915b505050505081565b600160009054906101000a900473ffffffffffffffffffffffffffffffffffffffff1681565b600060076002015414156107445760008090505b60058054905081101561073e576000600582815481106106be57fe5b9060005260206000200160009054906101000a900473ffffffffffffffffffffffffffffffffffffffff1690506000600e60008373ffffffffffffffffffffffffffffffffffffffff1673ffffffffffffffffffffffffffffffffffffffff168152602001908152602001600020819055505080806001019150506106a2565b50610843565b60008090505b6005805490508110156108415760006005828154811061076657fe5b9060005260206000200160009054906101000a900473ffffffffffffffffffffffffffffffffffffffff1690506000600a60008373ffffffffffffffffffffffffffffffffffffffff1673ffffffffffffffffffffffffffffffffffffffff168152602001908152602001600020549050600060076002015460648302816107ea57fe5b04905080600e60008573ffffffffffffffffffffffffffffffffffffffff1673ffffffffffffffffffffffffffffffffffffffff16815260200190815260200160002081905550505050808060010191505061074a565b505b565b6201518081565b600080600090505b6005805490508110156108f55760006005828154811061087057fe5b9060005260206000200160009054906101000a900473ffffffffffffffffffffffffffffffffffffffff1690506000600a60008373ffffffffffffffffffffffffffffffffffffffff1673ffffffffffffffffffffffffffffffffffffffff168152602001908152602001600020549050838101935050508080600101915050610854565b508060076002018190555050565b60078060000154908060010154908060020154905083565b60045481565b600a6020528060005260406000206000915090505481565b600e6020528060005260406000206000915090505481565b600d6020528060005260406000206000915054906101000a900460ff1681565b600081116109e7576040517f08c379a00000000000000000000000000000000000000000000000000000000081526004018080602001828103825260128152602001807f616d6f756e742063616e6e6f742062652030000000000000000000000000000081525060200191505060405180910390fd5b6109f5600760000154611b59565b600460008154809291906001019190505550600260009054906101000a900473ffffffffffffffffffffffffffffffffffffffff1673ffffffffffffffffffffffffffffffffffffffff166323b872dd3330846040518463ffffffff1660e01b8152600401808473ffffffffffffffffffffffffffffffffffffffff1673ffffffffffffffffffffffffffffffffffffffff1681526020018373ffffffffffffffffffffffffffffffffffffffff1673ffffffffffffffffffffffffffffffffffffffff1681526020018281526020019350505050602060405180830381600087803b158015610ae457600080fd5b505af1158015610af8573d6000803e3d6000fd5b505050506040513d6020811015610b0e57600080fd5b81019080805190602001909291905050505080600a60003373ffffffffffffffffffffffffffffffffffffffff1673ffffffffffffffffffffffffffffffffffffffff1681526020019081526020016000205401600a60003373ffffffffffffffffffffffffffffffffffffffff1673ffffffffffffffffffffffffffffffffffffffff1681526020019081526020016000208190555042600b60003373ffffffffffffffffffffffffffffffffffffffff1673ffffffffffffffffffffffffffffffffffffffff1681526020019081526020016000208190555043600760010181905550600c60003373ffffffffffffffffffffffffffffffffffffffff1673ffffffffffffffffffffffffffffffffffffffff16815260200190815260200160002060009054906101000a900460ff16610cab5760053390806001815401808255809150509060018203906000526020600020016000909192909190916101000a81548173ffffffffffffffffffffffffffffffffffffffff021916908373ffffffffffffffffffffffffffffffffffffffff160217905550505b6001600d60003373ffffffffffffffffffffffffffffffffffffffff1673ffffffffffffffffffffffffffffffffffffffff16815260200190815260200160002060006101000a81548160ff0219169083151502179055506001600c60003373ffffffffffffffffffffffffffffffffffffffff1673ffffffffffffffffffffffffffffffffffffffff16815260200190815260200160002060006101000a81548160ff021916908315150217905550600160009054906101000a900473ffffffffffffffffffffffffffffffffffffffff1673ffffffffffffffffffffffffffffffffffffffff1663a9059cbb3360065484026040518363ffffffff1660e01b8152600401808373ffffffffffffffffffffffffffffffffffffffff1673ffffffffffffffffffffffffffffffffffffffff16815260200182815260200192505050602060405180830381600087803b158015610e0857600080fd5b505af1158015610e1c573d6000803e3d6000fd5b505050506040513d6020811015610e3257600080fd5b810190808051906020019092919050505050610e4c61084c565b610e5461068e565b50565b600360009054906101000a900473ffffffffffffffffffffffffffffffffffffffff1681565b600b6020528060005260406000206000915090505481565b6000600a60003373ffffffffffffffffffffffffffffffffffffffff1673ffffffffffffffffffffffffffffffffffffffff16815260200190815260200160002054905060008111610f4f576040517f08c379a000000000000000000000000000000000000000000000000000000000815260040180806020018281038252601b8152602001807f7374616b696e672062616c616e63652063616e6e6f742062652030000000000081525060200191505060405180910390fd5b600060646014830281610f5e57fe5b04905060008183039050600260009054906101000a900473ffffffffffffffffffffffffffffffffffffffff1673ffffffffffffffffffffffffffffffffffffffff1663a9059cbb33836040518363ffffffff1660e01b8152600401808373ffffffffffffffffffffffffffffffffffffffff1673ffffffffffffffffffffffffffffffffffffffff16815260200182815260200192505050602060405180830381600087803b15801561101157600080fd5b505af1158015611025573d6000803e3d6000fd5b505050506040513d602081101561103b57600080fd5b810190808051906020019092919050505050600260009054906101000a900473ffffffffffffffffffffffffffffffffffffffff1673ffffffffffffffffffffffffffffffffffffffff1663a9059cbb30846040518363ffffffff1660e01b8152600401808373ffffffffffffffffffffffffffffffffffffffff1673ffffffffffffffffffffffffffffffffffffffff16815260200182815260200192505050602060405180830381600087803b1580156110f657600080fd5b505af115801561110a573d6000803e3d6000fd5b505050506040513d602081101561112057600080fd5b810190808051906020019092919050505050600160009054906101000a900473ffffffffffffffffffffffffffffffffffffffff1673ffffffffffffffffffffffffffffffffffffffff166323b872dd3330866040518463ffffffff1660e01b8152600401808473ffffffffffffffffffffffffffffffffffffffff1673ffffffffffffffffffffffffffffffffffffffff1681526020018373ffffffffffffffffffffffffffffffffffffffff1673ffffffffffffffffffffffffffffffffffffffff1681526020018281526020019350505050602060405180830381600087803b15801561120f57600080fd5b505af1158015611223573d6000803e3d6000fd5b505050506040513d602081101561123957600080fd5b8101908080519060200190929190505050506000600a60003373ffffffffffffffffffffffffffffffffffffffff1673ffffffffffffffffffffffffffffffffffffffff168152602001908152602001600020819055506000600d60003373ffffffffffffffffffffffffffffffffffffffff1673ffffffffffffffffffffffffffffffffffffffff16815260200190815260200160002060006101000a81548160ff0219169083151502179055506112f061084c565b6112f861068e565b505050565b60008111611373576040517f08c379a00000000000000000000000000000000000000000000000000000000081526004018080602001828103825260128152602001807f616d6f756e742063616e6e6f742062652030000000000000000000000000000081525060200191505060405180910390fd5b600360009054906101000a900473ffffffffffffffffffffffffffffffffffffffff1673ffffffffffffffffffffffffffffffffffffffff163373ffffffffffffffffffffffffffffffffffffffff1614611436576040517f08c379a00000000000000000000000000000000000000000000000000000000081526004018080602001828103825260148152602001807f63616c6c6572206d757374206265206f776e657200000000000000000000000081525060200191505060405180910390fd5b61143e61084c565b60008090505b60058054905081101561169c5760006005828154811061146057fe5b9060005260206000200160009054906101000a900473ffffffffffffffffffffffffffffffffffffffff1690506000600a60008373ffffffffffffffffffffffffffffffffffffffff1673ffffffffffffffffffffffffffffffffffffffff168152602001908152602001600020549050600060076002015460648302816114e457fe5b04905060006064828702816114f557fe5b04905060004390506000600760010154820390506000818402905060008111156116885780600a60008973ffffffffffffffffffffffffffffffffffffffff1673ffffffffffffffffffffffffffffffffffffffff1681526020019081526020016000205401600a60008973ffffffffffffffffffffffffffffffffffffffff1673ffffffffffffffffffffffffffffffffffffffff16815260200190815260200160002081905550600160009054906101000a900473ffffffffffffffffffffffffffffffffffffffff1673ffffffffffffffffffffffffffffffffffffffff1663a9059cbb886006548c026040518363ffffffff1660e01b8152600401808373ffffffffffffffffffffffffffffffffffffffff1673ffffffffffffffffffffffffffffffffffffffff16815260200182815260200192505050602060405180830381600087803b15801561164b57600080fd5b505af115801561165f573d6000803e3d6000fd5b505050506040513d602081101561167557600080fd5b8101908080519060200190929190505050505b505050505050508080600101915050611444565b504360076001018190555050565b6000600a60003373ffffffffffffffffffffffffffffffffffffffff1673ffffffffffffffffffffffffffffffffffffffff16815260200190815260200160002054905060008111611764576040517f08c379a000000000000000000000000000000000000000000000000000000000815260040180806020018281038252601b8152602001807f7374616b696e672062616c616e63652063616e6e6f742062652030000000000081525060200191505060405180910390fd5b600062015180600b60003373ffffffffffffffffffffffffffffffffffffffff1673ffffffffffffffffffffffffffffffffffffffff1681526020019081526020016000205401905080421015611823576040517f08c379a000000000000000000000000000000000000000000000000000000000815260040180806020018281038252601c8152602001807f746f6f206561726c7920746f20776974686472617720546f6b656e730000000081525060200191505060405180910390fd5b600260009054906101000a900473ffffffffffffffffffffffffffffffffffffffff1673ffffffffffffffffffffffffffffffffffffffff1663a9059cbb33846040518363ffffffff1660e01b8152600401808373ffffffffffffffffffffffffffffffffffffffff1673ffffffffffffffffffffffffffffffffffffffff16815260200182815260200192505050602060405180830381600087803b1580156118cc57600080fd5b505af11580156118e0573d6000803e3d6000fd5b505050506040513d60208110156118f657600080fd5b810190808051906020019092919050505050600160009054906101000a900473ffffffffffffffffffffffffffffffffffffffff1673ffffffffffffffffffffffffffffffffffffffff166323b872dd3330856040518463ffffffff1660e01b8152600401808473ffffffffffffffffffffffffffffffffffffffff1673ffffffffffffffffffffffffffffffffffffffff1681526020018373ffffffffffffffffffffffffffffffffffffffff1673ffffffffffffffffffffffffffffffffffffffff1681526020018281526020019350505050602060405180830381600087803b1580156119e557600080fd5b505af11580156119f9573d6000803e3d6000fd5b505050506040513d6020811015611a0f57600080fd5b8101908080519060200190929190505050506000600a60003373ffffffffffffffffffffffffffffffffffffffff1673ffffffffffffffffffffffffffffffffffffffff168152602001908152602001600020819055506000600d60003373ffffffffffffffffffffffffffffffffffffffff1673ffffffffffffffffffffffffffffffffffffffff16815260200190815260200160002060006101000a81548160ff021916908315150217905550611ac661084c565b611ace61068e565b5050565b600260009054906101000a900473ffffffffffffffffffffffffffffffffffffffff1681565b600c6020528060005260406000206000915054906101000a900460ff1681565b601481565b60058181548110611b2a57fe5b906000526020600020016000915054906101000a900473ffffffffffffffffffffffffffffffffffffffff1681565b60008111611bcf576040517f08c379a00000000000000000000000000000000000000000000000000000000081526004018080602001828103825260128152602001807f616d6f756e742063616e6e6f742062652030000000000000000000000000000081525060200191505060405180910390fd5b611bd761084c565b60006007600201541415611bea57611e54565b60008090505b600580549050811015611e4857600060058281548110611c0c57fe5b9060005260206000200160009054906101000a900473ffffffffffffffffffffffffffffffffffffffff1690506000600a60008373ffffffffffffffffffffffffffffffffffffffff1673ffffffffffffffffffffffffffffffffffffffff16815260200190815260200160002054905060006007600201546064830281611c9057fe5b0490506000606482870281611ca157fe5b0490506000439050600060076001015482039050600081840290506000811115611e345780600a60008973ffffffffffffffffffffffffffffffffffffffff1673ffffffffffffffffffffffffffffffffffffffff1681526020019081526020016000205401600a60008973ffffffffffffffffffffffffffffffffffffffff1673ffffffffffffffffffffffffffffffffffffffff16815260200190815260200160002081905550600160009054906101000a900473ffffffffffffffffffffffffffffffffffffffff1673ffffffffffffffffffffffffffffffffffffffff1663a9059cbb8860065484026040518363ffffffff1660e01b8152600401808373ffffffffffffffffffffffffffffffffffffffff1673ffffffffffffffffffffffffffffffffffffffff16815260200182815260200192505050602060405180830381600087803b158015611df757600080fd5b505af1158015611e0b573d6000803e3d6000fd5b505050506040513d6020811015611e2157600080fd5b8101908080519060200190929190505050505b505050505050508080600101915050611bf0565b50436007600101819055505b5056fea265627a7a72315820d7a78e3fcf8137262813cbb742955b93c59039865ebba3412409328c37f9153164736f6c63430005100032",
  "source": "pragma solidity ^0.5.0;\n\nimport \"./XToken.sol\";\nimport \"./DaiToken.sol\";\n\ncontract TokenFarm {\n    string public name = \"X Token Farm\";\n    XToken public xToken;\n    DaiToken public daiToken;\n    address public owner;\n    uint256 public stakingIndex = 0;\n    address[] public stakers;\n    uint256 internal tokenBurnRate = 2;\n    uint256 public constant duration = 1 days;\n    uint256 public constant penaltyRate = 20;\n    FarmInfo public farmInfo;   \n    \n    mapping(address => uint256) public stakingBalance;\n    // mapping(uint256 => StakeUser) public stake;\n    mapping(address => uint256) public stakingTimestamp;\n    mapping(address => bool) public hasStaked;\n    mapping(address => bool) public isStaking;\n    mapping(address => uint256) public poolShareRatio;\n\n    // struct StakeUser {\n    //     uint256 id;\n    //     uint256 balance;\n    //     uint256 blocknumber;\n    //     uint256 blocktimestamp;\n    //     address staker;\n    //     bool staked;\n    // }\n    \n    struct FarmInfo {\n        uint256 blockReward;\n        uint256 lastRewardBlock;  // Last block number that reward distribution occurs.\n        uint256 farmableSupply; // set in init, total amount of tokens farmable\n    }\n\n\n    constructor(XToken _xToken, DaiToken _daiToken, uint256 _blockReward) public {\n        xToken = _xToken;\n        daiToken = _daiToken;\n        farmInfo.blockReward = _blockReward;\n        owner = msg.sender;\n    }\n\n    // Stakes Tokens\n    function stakeTokens(uint256 _amount) public {\n        require(_amount > 0, \"amount cannot be 0\");\n        updateRewardTokens(farmInfo.blockReward);\n        stakingIndex++;\n        daiToken.transferFrom(msg.sender, address(this), _amount); // Stake dai token\n        stakingBalance[msg.sender] = stakingBalance[msg.sender] + _amount; //Update staking balance\n        stakingTimestamp[msg.sender] = block.timestamp;\n        farmInfo.lastRewardBlock = block.number;\n        // stake[stakingIndex] = StakeUser(\n        //     stakingIndex,\n        //     _amount,\n        //     block.number,\n        //     block.timestamp,\n        //     msg.sender,\n        //     true\n        // );\n\n        if (!hasStaked[msg.sender]) {\n            stakers.push(msg.sender);\n        }\n\n        //Update staking status\n        isStaking[msg.sender] = true;\n        hasStaked[msg.sender] = true;\n\n        xToken.transfer(msg.sender, _amount * tokenBurnRate);\n        getTotalBalance();\n        getPoolShareRatio();\n    }\n\n    // Unstacking Tokens\n    function unstakeTokens() public {\n        uint256 balance = stakingBalance[msg.sender];\n        require(balance > 0, \"staking balance cannot be 0\");\n        uint256 end = stakingTimestamp[msg.sender] + duration;\n        require(block.timestamp >= end, \"too early to withdraw Tokens\");\n        daiToken.transfer(msg.sender, balance); // Stake dai token\n        xToken.transferFrom(msg.sender, address(this), balance); //return x token\n\n        stakingBalance[msg.sender] = 0;\n        isStaking[msg.sender] = false;\n        getTotalBalance();\n        getPoolShareRatio();\n    }\n\n    // Issuing Tokens\n    function issueTokens(uint256 _amount) public {\n        require(_amount > 0, \"amount cannot be 0\");\n\n        // Only owner can call this function\n        require(msg.sender == owner, \"caller must be owner\");\n        getTotalBalance();\n\n        // uint256 totalBalance = daiToken.balanceOf(address(this));\n\n        //Issue tokens to all stakers\n        for (uint256 i = 0; i < stakers.length; i++) {\n            address recipient = stakers[i];\n            uint256 balance = stakingBalance[recipient];\n            uint256 ratio = (balance * 100) / farmInfo.farmableSupply;\n            uint256 amount = (_amount * ratio) / 100;\n\n            uint256 blknumbernow = block.number;\n            uint256 diffofblk = blknumbernow - farmInfo.lastRewardBlock;\n            uint256 totalamount = amount * diffofblk;\n\n            if (totalamount > 0) {\n                stakingBalance[recipient] = stakingBalance[recipient] + totalamount; //Update staking balance\n                xToken.transfer(recipient, _amount * tokenBurnRate);\n            }\n        }\n        farmInfo.lastRewardBlock = block.number;\n    }\n\n    // Issuing Tokens for internal\n    function updateRewardTokens(uint256 _amount) internal {\n        require(_amount > 0, \"amount cannot be 0\");\n        getTotalBalance();\n\n\n        if( farmInfo.farmableSupply == 0){\n            return;\n        }\n        //update reward tokens to all stakers\n        for (uint256 i = 0; i < stakers.length; i++) {\n            address recipient = stakers[i];\n            uint256 balance = stakingBalance[recipient];\n            uint256 ratio = (balance * 100) / farmInfo.farmableSupply;\n            uint256 amount = _amount * ratio / 100;\n            \n            uint256 blknumbernow = block.number;\n            uint256 diffofblk = blknumbernow - farmInfo.lastRewardBlock;\n            uint256 totalamount = amount * diffofblk;\n\n            if (totalamount > 0) {\n                stakingBalance[recipient] = stakingBalance[recipient] + totalamount; //Update staking balance\n                xToken.transfer(recipient, totalamount * tokenBurnRate);\n            }\n        }\n        farmInfo.lastRewardBlock = block.number;\n    }\n    \n    // Emergency Unstacking Tokens to withdraw LP tokens with penalty\n    function emergencyUnstakeTokens() public {\n        uint256 balance = stakingBalance[msg.sender];\n        require(balance > 0, \"staking balance cannot be 0\");\n        uint256 penalty = balance * penaltyRate/100;\n        uint256 remainingBalance = balance - penalty;\n        daiToken.transfer(msg.sender, remainingBalance); // Unstake dai token\n        daiToken.transfer(address(this), penalty); // Unstake penalty dai token\n        xToken.transferFrom(msg.sender, address(this), balance); //return x token\n\n        stakingBalance[msg.sender] = 0;\n        isStaking[msg.sender] = false;\n        getTotalBalance();\n        getPoolShareRatio();\n    }\n    \n    function getTotalBalance() public {\n        uint256 totalBalance;\n        for (uint256 i = 0; i < stakers.length; i++) {\n            address recipient = stakers[i];\n            uint256 balance = stakingBalance[recipient];\n            totalBalance = balance + totalBalance;\n        }\n        farmInfo.farmableSupply = totalBalance;\n    }\n    function getPoolShareRatio() public {\n        if( farmInfo.farmableSupply == 0){\n            for (uint256 i = 0; i < stakers.length; i++) {\n                address recipient = stakers[i];\n                poolShareRatio[recipient] = 0;\n            }\n        }\n        else {\n            for (uint256 i = 0; i < stakers.length; i++) {\n                address recipient = stakers[i];\n                uint256 balance = stakingBalance[recipient];\n                uint256 ratio = (balance * 100) / farmInfo.farmableSupply;\n                poolShareRatio[recipient] = ratio;\n            }\n        }\n    }\n}",
  "sourcePath": "/home/ubuntu/Desktop/Blockchain Talent Program/YieldFarming/Yield_Farming_compound/src/contracts/TokenFarm_compund.sol",
  "compiler": {
    "name": "solc",
    "version": "0.5.16+commit.9c3226ce.Emscripten.clang"
  },
  "schemaVersion": "3.4.1",
  "updatedAt": "2021-06-24T08:31:10.789Z",
  "networkType": "ethereum",
  "devdoc": {
    "methods": {}
  },
  "userdoc": {
    "methods": {}
  }
}